:020000040000fa
:080000000002040000000000f2
:020000040000fa
:04000800a80200004a
:020000040000fa
:04000c00a802000046
:020000040000fa
:04001000a802000042
:020000040000fa
:04001400a80200003e
:020000040000fa
:04001800a80200003a
:020000040000fa
:04001c00a802000036
:020000040000fa
:04002000a802000032
:020000040000fa
:04002400a80200002e
:020000040000fa
:04002800a80200002a
:020000040000fa
:04002c00a802000026
:020000040000fa
:04003000a802000022
:020000040000fa
:040034002c1000008c
:020000040000fa
:04003800a80200001a
:020000040000fa
:04003c00a802000016
:020000040000fa
:04004000a802000012
:020000040000fa
:04004400a80200000e
:020000040000fa
:040048004a1000005a
:020000040000fa
:04004c00a802000006
:020000040000fa
:04005000a802000002
:020000040000fa
:04005400a8020000fe
:020000040000fa
:04005800a8020000fa
:020000040000fa
:04005c00a8020000f6
:020000040000fa
:04006000a8020000f2
:020000040000fa
:04006400a8020000ee
:020000040000fa
:04006800a8020000ea
:020000040000fa
:04006c00a8020000e6
:020000040000fa
:04007000a8020000e2
:020000040000fa
:040074002c0e00004e
:020000040000fa
:04007800a8020000da
:020000040000fa
:04007c00a8020000d6
:020000040000fa
:04008000a8020000d2
:020000040000fa
:04008400a8020000ce
:020000040000fa
:04008800a8020000ca
:020000040000fa
:04008c00a8020000c6
:020000040000fa
:04009000a8020000c2
:020000040000fa
:04009400a8020000be
:020000040000fa
:04009800a8020000ba
:020000040000fa
:04009c00a8020000b6
:020000040000fa
:0400a000a8020000b2
:020000040000fa
:0400a400a8020000ae
:020000040000fa
:0400a800a8020000aa
:020000040000fa
:0400ac00a8020000a6
:020000040000fa
:0400b000a8020000a2
:020000040000fa
:0400b400a80200009e
:020000040000fa
:0400b800a80200009a
:020000040000fa
:0400bc00a802000096
:020000040000fa
:0400c000a802000092
:020000040000fa
:0400c400a80200008e
:020000040000fa
:0400c800a80200008a
:020000040000fa
:0400cc00a802000086
:020000040000fa
:0400d000a802000082
:020000040000fa
:0400d400a80200007e
:020000040000fa
:0400d800a80200007a
:020000040000fa
:0400dc00a802000076
:020000040000fa
:0400e000a802000072
:020000040000fa
:0400e400a80200006e
:020000040000fa
:0400e800a80200006a
:020000040000fa
:0400ec00a802000066
:020000040000fa
:0400f000a802000062
:020000040000fa
:0400f400a80200005e
:020000040000fa
:0400f800a80200005a
:020000040000fa
:0400fc00a802000056
:020000040000fa
:04010000a802000051
:020000040000fa
:04010400a80200004d
:020000040000fa
:04010800a802000049
:020000040000fa
:04010c00a802000045
:020000040000fa
:04011000a802000041
:020000040000fa
:04011400a80200003d
:020000040000fa
:04011800a802000039
:020000040000fa
:04011c00a802000035
:020000040000fa
:04012000a802000031
:020000040000fa
:04012400a80200002d
:020000040000fa
:04012800a802000029
:020000040000fa
:04012c00a802000025
:020000040000fa
:04013000a802000021
:020000040000fa
:04013400a80200001d
:020000040000fa
:04013800a802000019
:020000040000fa
:04013c00a802000015
:020000040000fa
:04014000a802000011
:020000040000fa
:04014400a80200000d
:020000040000fa
:04014800a802000009
:020000040000fa
:04014c00a802000005
:020000040000fa
:04015000a802000001
:020000040000fa
:04015400a8020000fd
:020000040000fa
:04015800a8020000f9
:020000040000fa
:04015c00a8020000f5
:020000040000fa
:04020800a802000048
:020000040000fa
:04020c00a802000044
:020000040000fa
:04021000a802000040
:020000040000fa
:04021400a80200003c
:020000040000fa
:04021800a802000038
:020000040000fa
:04021c00a802000034
:020000040000fa
:04022000a802000030
:020000040000fa
:04022400a80200002c
:020000040000fa
:04022800a802000028
:020000040000fa
:04022c00a802000024
:020000040000fa
:04023000a802000020
:020000040000fa
:04023400a80200001c
:020000040000fa
:04023800a802000018
:020000040000fa
:04023c00a802000014
:020000040000fa
:04024000a802000010
:020000040000fa
:04024400a80200000c
:020000040000fa
:04024800a802000008
:020000040000fa
:04024c00a802000004
:020000040000fa
:04025000a802000000
:020000040000fa
:04025400a8020000fc
:020000040000fa
:04025800a8020000f8
:020000040000fa
:04025c00a8020000f4
:020000040000fa
:04026000a8020000f0
:020000040000fa
:04026400a8020000ec
:020000040000fa
:04026800a8020000e8
:020000040000fa
:04026c00a8020000e4
:020000040000fa
:04027000a8020000e0
:020000040000fa
:04027400a8020000dc
:020000040000fa
:04027800a8020000d8
:020000040000fa
:04027c00a8020000d4
:020000040000fa
:04028000a8020000d0
:020000040000fa
:04028400a8020000cc
:020000040000fa
:04028800a8020000c8
:020000040000fa
:04028c00a8020000c4
:020000040000fa
:04029000a8020000c0
:020000040000fa
:04029400a8020000bc
:020000040000fa
:04029800a8020000b8
:020000040000fa
:04029c00a8020000b4
:020000040000fa
:0402a000a8020000b0
:020000040000fa
:0402a400a8020000ac
:020000040000fa
:0402a800a8020000a8
:020000040000fa
:0402ac00a8020000a4
:020000040000fa
:0402b000a8020000a0
:020000040000fa
:0402b400a80200009c
:020000040000fa
:0402b800a802000098
:020000040000fa
:0402bc00a802000094
:020000040000fa
:0402c000a802000090
:020000040000fa
:0402c400a80200008c
:020000040000fa
:0402c800a802000088
:020000040000fa
:0402cc00a802000084
:020000040000fa
:0402d000a802000080
:020000040000fa
:0402d400a80200007c
:020000040000fa
:0402d800a802000078
:020000040000fa
:0402dc00a802000074
:020000040000fa
:0402e000a802000070
:020000040000fa
:0402e400a80200006c
:020000040000fa
:0402e800a802000068
:020000040000fa
:0402ec00a802000064
:020000040000fa
:0402f000a802000060
:020000040000fa
:0402f400a80200005c
:020000040000fa
:0402f800a802000058
:020000040000fa
:0402fc00a802000054
:020000040000fa
:04030000a80200004f
:020000040000fa
:04030400a80200004b
:020000040000fa
:04030800a802000047
:020000040000fa
:04030c00a802000043
:020000040000fa
:04031000a80200003f
:020000040000fa
:04031400a80200003b
:020000040000fa
:04031800a802000037
:020000040000fa
:04031c00a802000033
:020000040000fa
:04032000a80200002f
:020000040000fa
:04032400a80200002b
:020000040000fa
:04032800a802000027
:020000040000fa
:04032c00a802000023
:020000040000fa
:04033000a80200001f
:020000040000fa
:04033400a80200001b
:020000040000fa
:04033800a802000017
:020000040000fa
:04033c00a802000013
:020000040000fa
:04034000a80200000f
:020000040000fa
:04034400a80200000b
:020000040000fa
:04034800a802000007
:020000040000fa
:04034c00a802000003
:020000040000fa
:04035000a8020000ff
:020000040000fa
:04035400a8020000fb
:020000040000fa
:04035800a8020000f7
:020000040000fa
:04035c00a8020000f3
:020000040000fa
:100400002f9b20000edf20000e018800000000005e
:10041000000020000000e000020032000001200087
:10042000200288000c0007000015210001002000b8
:1004300011000700000020000000e0000200320070
:100440000000020000000000fc0c020000000000a0
:100450000040da000000fe004440a900001920001e
:100460000000e0000300320000002000a00188002e
:100470004440a80000000600910188008000780038
:100480000000eb0015003700e280400032a0b4000d
:100490009101ba00e280400032a0b4009102ba009b
:1004a000e280400032a0b4000002eb00472bde00e7
:1004b000f507b200602ce10004003a000059eb009f
:1004c0008301e900fdff3e00040037006128e100e0
:1004d000010032000082eb000b00070011c3ba00dc
:1004e0001101ba000604e00003003a000200e00037
:1004f000e5ff3a0000000600f607b200960188000a
:1005000082007800f5ff37003159ba008301e90015
:100510000c0032002159ba008301e90008003200c2
:100520000400e00003003a00e280400032a0b40082
:10053000f5ff370011d9ba008301e900faff3a004c
:100540008100e800e180400032a0b4000000060015
:100550000040da000000fe00839f68000100e00018
:1005600002003d0060001000e08018000300e00081
:1005700002003d0060011100e08119000500070044
:100580004f00e00002003b0060001000e080180017
:10059000000006006022b800060220000000d00023
:1005a0008180d2000482d2008582d2000000a000a7
:1005b0000202520083825a0003003100020242000c
:1005c00083824a000000a1000603e900f3ff3a001d
:1005d00000000600889fbe008a9fbe008c1f780026
:1005e0000006eb00e00f5000e08f5800e00f5900cc
:1005f000e08f590007003d006044b8006055b80026
:100600000000540081805c0002015d0083815d0078
:100610001c002000e00f5200e08f5a00e00f5b004a
:10062000e08f5b0007003d006044b8006055b800f3
:100630000402540085825c0006035d0087835d0030
:100640000c00a2000c0007000c00e00006003200c5
:100650006022b8006033b8000000520081805a0068
:1006600002015b0083815b004f0678004f05be00ee
:100670004f04be0000000600889fbe008a9fbe0097
:100680008c9fbe000404b8000506b800890446002b
:1006900060854e000606b8000a054600e0854e005b
:1006a0000706b8008b054600040eb8008904460012
:1006b0000a854e00e0854d00050eb8000a0546008b
:1006c0008b854e00060eb8008b0546000416b80058
:1006d0000a0546008b854e000516b8008b054600be
:1006e000041eb8008b0546000800be000a01be00cb
:1006f0004f06be004f05be004f04be0000000600be
:020000040000fa
:1007000070080000660800005c0800005208000045
:100710003408000016080000a80700004b0700007e
:10072000fb060000b5060000790600004306000045
:1007300014060000e9050000c30500009f05000045
:100740007f05000061050000440500002a05000047
:1007500010050000f8040000e1040000cb040000d4
:10076000b6040000a10400008d040000790400001c
:100770006604000053040000410400002f04000040
:100780001e0400000d040000fc030000eb03000049
:10079000db030000cb030000bc030000ac0300003f
:1007a0009d0300008e030000800300007103000021
:1007b0006303000055030000480300003a030000f3
:1007c0002d030000200300001303000007030000b6
:1007d000fa020000ee020000e2020000d602000071
:1007e000cb020000bf020000b4020000a90200001a
:1007f0009e02000093020000890200007e020000b9
:10080000740200006a02000060020000560200004c
:100810004d020000430200003a02000031020000d5
:10082000280200001f020000160200000e02000055
:1008300005020000fd010000f5010000ed010000cf
:10084000e5010000dd010000d6010000ce0100003e
:10085000c7010000c0010000b8010000b1010000a4
:10086000aa010000a40100009d0100009601000003
:100870009001000089010000830100007d0100005b
:1008800077010000710100006b01000065010000ac
:100890005e01000068010000720100007c010000a0
:1008a00090010000a4010000da010000080200002d
:1008b00030020000550200007602000094020000a1
:1008c000b0020000ca020000e1020000f8020000cd
:1008d0000d03000021030000330300004603000065
:1008e0005603000066030000760300008403000046
:1008f00092030000a0030000ad030000ba03000053
:10090000c6030000d1030000dd030000e80300007f
:10091000f3030000fd0300000704000011040000c1
:100920001a040000230400002d0400003604000017
:100930003e040000460400004f040000570400007d
:100940005e040000660400006e04000075040000f0
:100950007c040000830400008a040000910400006d
:10096000970400009d040000a4040000aa040000f5
:10097000b0040000b6040000bc040000c204000083
:10098000c8040000ce040000d3040000d804000016
:10099000de040000e3040000e8040000ed040000b1
:1009a000f3040000f8040000fc040000010500004e
:1009b000060500000a0500000f05000014050000f0
:1009c000180500001d050000220500002605000096
:1009d0002a0500002e050000320500003705000042
:1009e0003b0500003f0500004205000047050000f0
:1009f0004b0500004e0500005305000056050000a1
:100a00005a0500005e050000610500006505000054
:100a1000680500006c0500006f050000730500000c
:020000040000fa
:100a20000200fa00000f78001e00780000f0a70016
:100a30000000ea000080fa00000006000000fa0052
:100a400050462000004088000080fa0000000600a8
:100a50000000fa00004080000000e900004088002b
:100a6000004080000000e00001003a003004070070
:100a70000080fa00000006000000fa000768ef009e
:100a8000800c2000010020001040880021408800d8
:100a900080ccb30006e8b700fc28ef00fe28ef008a
:100aa0000029ef00e5ff07000080fa0000000600c3
:100ab0000400fa00881f7800008fbe00e047800025
:100ac0000000e800e0478800e1478000d0032000f4
:100ad000808f500001003a00fc28ef00e8478000ba
:100ae0001e00be00cd010700cf80de00c241dd0048
:100af00082802000028141000089be004f047800fe
:100b00000080fa00000006000a00fa00f0478000aa
:100b1000e40f500003003c0020c3b300004f7800f6
:100b20000e003700f0478000e90f500003003c0042
:100b3000e0c1b300004f780008003700f0478000a4
:100b4000fd0f500003003c0090c1b300004f78003f
:100b500002003700a0c0b300004f7800e1478000da
:100b60001e80fb0000805000100798001e009000bf
:100b70000000e00003003d001e009000d003b00024
:100b8000100798001e80fb0001192000000178006a
:100b9000110009008200d800200798001e00900074
:100ba000c200dd0080802000008040001001be00f7
:100bb000e0478000c200dd0080802000008040000f
:100bc0001000be0000015100818159002e009000ec
:100bd000cf80de00009ab90004027800028bb900d1
:100be00086027800050242000010b80001024200af
:100bf000840078003007980041079800300798007b
:100c0000410798003e009000ce0090001d020700b2
:100c1000ea00500090002000000178001100090057
:100c20008200d800f0478800f04780007cff070072
:100c3000004888000080fa00000006000800fa0062
:100c4000f04780000000e00007003d006000b800b1
:100c50002007980031079800401f20000100200065
:100c6000008fbe00170037000148800030062000ca
:100c7000808f50000400340030062000f0478800c8
:100c800030062000004888000048800080004000b6
:100c90000038280000804000100078008000eb0041
:100ca000008fbe00f0478000800040008044280094
:100cb00000804000100078008000eb0020079800c2
:100cc0003107980007c8bf000004e000160032009a
:100cd0006000b8004b0207009e0090002003200037
:100ce0000088b900000178001e0078006000b9009b
:100cf00000007800000141009e00780020032000e1
:100d00000008b800010141008200780082a9230098
:100d1000030020001ffe07001040880021408800cb
:100d20000768ef001c0037002e009000be00900006
:100d300000004000818048003200200003002000b5
:100d400014fe07002f02070010c0b30007e8b70029
:100d50009e009000200320000088b9000001780068
:100d60001e0078006000b90000007800000141001a
:100d70009e007800200320000008b8000101410017
:100d800082007800027122000300200001fe0700ab
:100d900010408800214088000080fa000000060012
:100da0000400fa00008fbe001e00be0040ff0700d6
:100db00006c8bf008080fb008100e900cf08de008c
:100dc000814078000040e90006e8b7000104e00037
:100dd000100032004cff0700014880001003200083
:100de000808f500003003c0080c0b30006e8b700cd
:100df0000200370050c0b30006e8b700004880008a
:100e0000e20f5000020034000cff07000100370021
:100e10000fff07001040800021408000008170001b
:100e200002f0a7000201ea000201e9004f11de0012
:100e30000241780061005000e080580010408800b6
:100e4000214088000204e000010032007bff07001f
:100e50000080fa00000006000400fa00008fbe00c7
:100e6000004d80006101b8004818dd00c810de00a8
:100e7000810070004810dd003e011000ae811800b6
:100e80000200be00604d8800714d88000080fa00ad
:100e9000000006002800fa00889fbe008a9fbe005e
:100ea000200f9800310f9800d04c80008000eb009c
:100eb0006011b8000205be000004be008a0578007b
:100ec00009057800880478000004eb00f04c8000ed
:100ed0006102b8006033b800440f9800550f9800c5
:100ee000660f9800770f9800604d8000714d80006c
:100ef0004f89de00820178000203be000002be00be
:100f00004e089000de0890006e099000fe099000e7
:100f1000b0fd07004700de00c90add000080720056
:100f2000c708de00c912dd00818072004711de00b3
:100f3000c91add0002817200c799de00001f44005b
:100f4000019f4c00021f4d00038f4d006e00b10049
:100f5000c04c80008000eb006011b8000205be00ac
:100f60000004be00cf5ddd004153de008b05730041
:100f70004f55dd00414bde000a057300cf4cdd000c
:100f80004143de00890473004f44dd00e04c8000e3
:100f90006102b8006033b800041798001517980074
:100fa0002617980037179800604d8000714d80001b
:100fb0004f89de00820178000203be000002be00fd
:100fc0000e1090009e1090002e119000be11900007
:100fd00080fd07004800de00c80add0000807200c6
:100fe000c808de00c812dd00818072004811de00f2
:100ff000c81add0002817200c899de0000004400ba
:1010000081804c0002014d0083814d004007980013
:101010005107980062079800730798002e08900007
:10102000be0890006011b8004e029000de029000f1
:101030006e039000fe03900066fd07000203be00f1
:101040000002be00452ade004b34dd0004027400bd
:10105000c532de004b3cdd008502740045bbde007e
:10106000cfbbde003e005200be805a003e015b0056
:101070009e815b006e00b1004f00de00410add0082
:1010800000007200cf08de004112dd008100720016
:10109000000f9800110f98000e0890009e08900015
:1010a0004f05be004f04be000080fa00000006009d
:1010b0000000fa0081c4b300e0ceb300850307004e
:1010c0000080fa00000006000000fa0021c5b3000d
:1010d000e0ceb3007f0307000080fa0000000600a6
:1010e0000600fa00200798008e01780032002000e8
:1010f0008040eb00e0ceb300910307000000000049
:1011000000000000000000001e4078000080fb008e
:101110008000eb002e0190000089be002e009000a0
:101120001000be004809dd00c801de008301710027
:101130004801dd001e4090000080fb008000eb00b5
:1011400000007100818071002e0190000089be00b6
:101150002e0090001000be004809dd00c801de002e
:10116000830171004801dd002e4090000080fb00eb
:101170008000eb0000007100818071002e01900062
:101180000089be000080fa00000006000000fa009e
:10119000e1c1b300e0ceb3004e0307000080fa00c7
:1011a000000006000400fa0010002000000f780084
:1011b00015003700409a20001e00400010407800c3
:1011c0008e80e800810178002200200080407800b5
:1011d000e0ceb3005a0307002e4090000080fb00d1
:1011e000c800dd003e4090000080fb0081007000e0
:1011f0001e007800000140006099200000004100be
:10120000010878001e0fe8001e007800e60f50006d
:10121000e8ff34000080fa00000006001c00fa001d
:10122000889fbe008a9fbe00000f9800110f980093
:101230000e0890009e0890004f89de008201780021
:10124000cb19dd004512de00830172004b11dd0079
:10125000450ade0002017200cb08dd004502de0017
:10126000810072004b00dd00009fbe000297be00af
:101270003e00be002e01be000205be000004be00fe
:10128000c45ddd00cc52de008b8572004455dd006c
:10129000cc4ade000a857200c44cdd00cc42de0080
:1012a000898472004444dd00e09620005001be00b5
:1012b0004000be00c519dd004b13de008301730042
:1012c0004511dd004b0bde0002017300c508dd0097
:1012d0004b03de00810073004500dd000002440086
:1012e00081824c0002034d0083834d0060972000f3
:1012f0005001be004000be00c419dd004c14de00e9
:10130000830174004411dd004c0cde000201740006
:10131000c408dd004c04de00810074004400dd00e0
:101320000004420081844a0002054b0083854b0083
:10133000e09720005001be004000be0014de2000f7
:10134000050020006033b800a2fc07000203be00c5
:101350000002be00240f9800350f9800460f980039
:10136000570f9800609820005001be004000be005a
:10137000f49d2f00f5ff2f00f6ff2f00f7ff2f0041
:1013800094fc07002e0a9000be0a90004e0b9000bd
:10139000de0b90000000420081804a0002014b00f9
:1013a00083814b000000440081804c0002014d000d
:1013b00083814d004007980051079800620798000c
:1013c00073079800e09620005001be004000be0068
:1013d00064972000009abe000292be00e0962000b2
:1013e0003e02be002e03be000498be000690be0062
:1013f000e09720005001be004000be00649820002d
:10140000009abe000292be004e009000de009000e6
:101410006e019000fe0190004b00de00c50add0069
:1014200000807200cb08de00c512dd0081807200f2
:101430004b11de00c51add0002817200cb99de007f
:10144000e4972000009abe000292be00e0972000c0
:101450005001be004000be004b00de00450bdd0029
:1014600000007300cb08de004513dd00810073002f
:101470000000be004f05be004f04be000080fa0011
:10148000000006000800fa002007980031079800c5
:10149000924c8000a34c80002e009000be00900073
:1014a0000200400083804800920420000289b900b5
:1014b000020278006001b9000201780002024200d5
:1014c000920420000201b800030242008401780067
:1014d000704c8000814c800064352000048ab90083
:1014e000040278006003b900860278000502420019
:1014f000653520000500b800010242008400780034
:10150000001f4100019749002e019000be0190008c
:10151000924c8800a34c88001e00be00823e200032
:10152000030020000cfc0700704c8800814c8800f0
:10153000704c8000814c80000080fa0000000600a2
:101540000000fa006980a900cfc2a900c9c2a900a1
:101550002d43a8000080fa00000006000000fa00f9
:101560006980a900c9c2a8002d43a8000080fa0024
:10157000000006000000fa008461a90085a1a9000e
:1015800035c6a90035a6a8003586a900a03180007f
:101590000060a1000070a100a03188003486a9007d
:1015a000a03180000000a0000010a000a031880041
:1015b00035e6a90000000000000000000000000067
:1015c00000000000000000003106a9008640a900cc
:1015d0000080fa00000006000000fa0035e6a900cd
:1015e00035c6a900cbc2a9000080fa0000000600a1
:1015f0000000fa0035c6a80035e6a8000080fa0011
:10160000000006000600fa00100798002107980065
:10161000200c80000000a1000010a1000020a1000b
:10162000200c8800c20207001e009000ae0090004f
:10163000e00f5000e08f5800100032001e019000b3
:10164000ae01900020a1270001002000d1fb07007f
:10165000000f78001e0078000000d100000c880008
:101660001e007800ab020700200c80000000a100e3
:101670000010a0000020a000200c88000080fa00cc
:10168000000006000000fa00f2c7b3008040eb0043
:1016900080c5b3001b02070042c0b30001c7b300fe
:1016a00080c5b30017020700a5ff0700d0ff0700a1
:1016b0000080fa00000006000000fa00c6ff0700e4
:1016c000a6ff07000041eb008040eb0080c5b3009f
:1016d0000c02070032c0b30001c7b30080c5b300dd
:1016e000080207000080fa00000006000000fa006f
:1016f000b9ff070099ff070062c0b3008040eb000c
:1017000080c5b300ff01070022c0b30001c7b300ca
:1017100080c5b300fb0107000080fa00000006004e
:101720000000fa00acff07008cff0700f2c2b30014
:101730008040eb0080c5b300f201070012c0b30087
:1017400001c7b30080c5b300ee0107000080fa00b6
:10175000000006000200fa008e017800220020003e
:10176000c1c7b30080c5b300f50107001e4090005b
:101770000080fa00000006000000fa00b0c9bf00b7
:10178000e44f500004003a00d8ff070020c0b30027
:10179000b0e9b70011003700b0c9bf00e24f5000f8
:1017a00004003a00c4ff070030c0b300b0e9b7003e
:1017b0000a003700b0c9bf00e34f500004003a00f0
:1017c000b0ff070040c0b300b0e9b7000300370026
:1017d000acff070040c0b300b0e9b7000080fa00da
:1017e000000006000000fa00daff07000040e900f0
:1017f000b0e9b700b0c9bf00e14f500002003a00a5
:1018000040c0b300b0e9b700dbff07000080fa007a
:10181000000006000000fa006900a900c6c2a90085
:10182000c0c2a9000080fa00000006000000fa0013
:101830006800a900c082a8000080fa00000006002d
:101840000000fa0068c0a900c842a8000080fa00a1
:10185000000006000000fa006980a900c9c2a800c3
:101860002d43a8000080fa00000006000000fa00e6
:10187000006a280011002000d30107009460a9002d
:101880000080fa00000006000000fa000080eb0073
:1018900060198800203a80000080a1000090a1001b
:1018a00000a0a100203a8800e5ff0700dfff070045
:1018b000d8ff0700e7ff07005807a9009400a90018
:1018c0005b07a90012010700ac0107000002070036
:1018d0001c0207007c00070026ff07000080fa00ba
:1018e000000006000400fa00d501070063c9bf002c
:1018f0000004e000020032006369ef0023003700bb
:101900000060fe004047a90064c9bf000004e00079
:101910000700320060962000f1fd0700eafd070095
:10192000b000200001002000a701070010003700d0
:101930000e007800eafd0700ddfd0700a00520008d
:1019400001002000a00107001e00be0042fd0700ac
:10195000304b8000414b80004efd0700504b88000b
:10196000614b8800504b8000614b80000cfd0700ec
:1019700064c9bf000080fb000000e9004f00de00ea
:101980000040780064e9b7000140fe000080fa00e2
:10199000000006000400fa00008fbe00a801070046
:1019a00010c0b30063e9b7001e0090006a00b900e0
:1019b000000178001e0078006000b9000000780087
:1019c000000141009e007800a00020000008b8003f
:1019d00001014100820078007b010700010037000f
:1019e0000000000063c9bf000004e000fcff3a00f3
:1019f0000080fa00000006000200fa00a2ff0700c3
:101a00000060fe00e1fd0700007d200001002000d5
:101a1000e0ff07006000b800fafe0700e1fd0700e4
:101a20006469ef006fff07000040eb00004f780093
:101a30000d0037001e80fb00c200dd00209020005a
:101a4000008040001000be00eefe07001e80fb007c
:101a5000c200dd00e0912000008040001000be00c8
:101a6000ccff07001e4fe8001e407800e64f5000f4
:101a7000f0ff36006000b800e2fe070092fd0700ac
:101a8000b0002000010020004f010700fafb070012
:101a90000d00070000000000feff37000000fa0004
:101aa0006ae0a900c8e2a8000080fa000000060071
:101ab0000000fa006980a900c9c2a8002d43a8004f
:101ac0000080fa00000006000000fa00f3ff0700a3
:101ad0008660a90062e0a8006005800000c0a00048
:101ae00000d0a10000e0a100600588009660a80079
:101af0000080fa00000006000400fa00008fbe001b
:101b00008500a900a00107000100370000000000c7
:101b1000a30107008000eb00be0f5000ae8f5800fd
:101b2000faff3900a20107000080fa000000060059
:101b30000000fa008089200001002000b1fe0700ab
:101b40000005200001002000ebff0700c04420003a
:101b500001002000abfe070000052000010020006e
:101b6000e5ff0700c00d200001002000a5fe0700d2
:101b70000005200001002000dfff07006000b80022
:101b8000a0fe07002e01070069010700c8ff07003b
:101b900091fe07008200a8009400a80059e7a80061
:101ba0000040fe00000000000080fa000000060077
:101bb0000000fa00c00d20000100200091fe070087
:101bc0002003200001002000cbff07006000b800c8
:101bd0008cfe07002003200001002000c6ff070044
:101be000c00d20000100200086fe07002003200019
:101bf00001002000c0ff07006000b80081fe070060
:101c00002003200001002000bbff0700c00d2000c2
:101c1000010020007bfe07002003200001002000bf
:101c2000b5ff07006000b80076fe07000080fa00ec
:101c3000000006000000fa008500a9009500a90038
:101c40007efb07005a010700cbfe0700d8ff070004
:101c50000080fa00000006003600f800809fbe00f9
:101c6000829fbe00849fbe00869fbe000000fa00d7
:101c70008660a90062e0a900600420000100200045
:101c80009dff07004001070051168000000820005a
:101c9000008060000000e00014003a0001003700fe
:101ca0000000000051168000000820000080600045
:101cb0000000e00004003a0039010700712520000f
:101cc000810f5000f6ff360035010700411f20004c
:101cd000810f50000200360095ff07000300370017
:101ce00056fb0700a4fe0700b1ff07003001070004
:101cf00062e0a8000080fa004f03be004f02be0061
:101d00004f01be004f00be003600f9000040060043
:101d10000000fa000422ef0007e2a8000080fa00a9
:101d2000000006000000fa000602a8000000000003
:101d300030108000610060000000e000fcff3a000d
:101d40000080fa00000006000000fa000642a80029
:101d50000000000030108000640060000000e0001f
:101d6000fcff3a000080fa00000006000000fa00c4
:101d70000622a80000000000301080006200600011
:101d80000000e000fcff3a000080fa0000000600be
:101d90000200fa00004f78001e80fb00101088003f
:101da000000000004110800000002400008060005e
:101db0000000e000fbff3a000080fa00000006008f
:101dc0000400fa0020479800000000003010800056
:101dd0007f0060000000e000fcff3a000662a800ff
:101de0000000000040108000620060000000e00081
:101df000fcff320000108000004f7800000000005f
:101e0000301080007f0060000000e000fcff3a001e
:101e10002e409000614060000080fb006100600087
:101e20004500dd0032108000f1fd2f0081006100cf
:101e300001007000301088000682a8000000000039
:101e400030108000700060000000e000fcff3a00ed
:101e50001e4078000080fa00000006000800fa002a
:101e6000204798002107980032079800adff07002f
:101e70002e4090000004a000c5ff07000000eb000a
:101e8000000f7800080037000040eb00ccff07008f
:101e9000ae009000804878002e0090000000e8001e
:101ea000200798001e0fe8003e0090000000e900a7
:101eb0009e0f5000f4ff3e0010c0b300c0ff0700ab
:101ec000ae009000804878009fff07000080fa0075
:101ed000000006000200fa00004f78001147980049
:101ee00090ff0700e0cfb3001e406000a8ff07008e
:101ef0001e409000a6ff070093ff07000080fa0035
:101f0000000006000400fa00004f78001147980016
:101f10002247980083ff0700e0cfb3001e40600017
:101f20009bff07001e40900099ff07002e40900085
:101f300097ff070084ff07000080fa0000000600fa
:101f40000600fa00004f7800114798001207980029
:101f5000230798009e4090001e407800ddff070098
:101f60001e00900000017800ae0090001e40780036
:101f7000baff07000080fa00000006000000fa0027
:101f800005e1a9000421a90004c1a90005a1a90037
:101f900004a1a9000481a8000080eb0010088800bb
:101fa0000021ef008460a9002005800000c0a0008f
:101fb00000d0a10000e0a100200588009460a900e5
:101fc0000080fa00000006000400fa00008fbe0046
:101fd00005e1a9009e00900000092d000088b900cd
:101fe000000178001e0078006300b900000078004e
:101ff000000141009e00780000092d000008b80093
:1020000001014100820078000271220003002000db
:1020100060f907004d09dd004300de00000071009b
:10202000c308de0000007800100888000021ef00df
:1020300005e1a8009460a8000080fa0000000600f6
:102040000000fa0005e1a9000021ef009460a9005a
:102050000080fa00000006003600f800809fbe00f5
:10206000829fbe00849fbe00869fbe000000fa00d3
:102070008460a9001bfe07000080fa004f03be0029
:102080004f02be004f01be004f00be003600f900f7
:10209000004006003600f800809fbe00829fbe0010
:1020a000849fbe00869fbe000000fa008500a90044
:1020b000e0fe07000080fa004f03be004f02be00a2
:1020c0004f01be004f00be003600f9000040060080
:1020d0000000fa001061a9001021a90010c1a90098
:1020e00011a1a90010a1a9001081a800300580004d
:1020f00000c0a00000d0a10000e0a10030058800d1
:1021000011e1a9000621ef0094e0a9000080fa0087
:10211000000006000200fa00000f78009e00780020
:102120006108880011e1a8000080fa0000000600a4
:102130000000fa0011e1a9000621ef000080fa007a
:10214000000006000000fa001061a9001221a90099
:1021500012c1a90013a1a90012a1a8001281a80010
:10216000400580000000a0000010a1000020a10098
:102170004005880013e1a9000a21ef009500a9009d
:102180000080fa00000006000000fa0013e1a90038
:102190000a21ef0013e1a8000080fa000000060009
:1021a0000000fa00500880000080fa0000000600dd
:1021b0000000fa0013e1a9000a21ef000080fa00f4
:1021c000000006000200fa0060002000c011880034
:1021d0003062a80031e2a8003162a80080118000be
:1021e0000010a1000020a100801188003002a90089
:1021f00002003700b0118000004f7800901180007d
:10220000610060000000e000faff3a0087c0a9000a
:1022100087e0a900900580000080a0000090a10048
:1022200000a0a100900588009005800000c0a000db
:1022300000d0a10000e0a1009005880097c0a9008f
:1022400097e0a9003342a8000080fa0000000600d1
:102250000200fa00000f78000b0037001e00780023
:10226000104078000000fb00a01188001e0fe8005d
:10227000000000009111800000102000008060002c
:102280000000e000fbff32001e00780010407800e4
:102290000004e000f1ff3a000080fa0000000600b0
:020000040000fa
:1022a0003a090000340000000000000002090000ac
:1022b0003800000002000000b8010000000000002b
:1022c0000000ba00020000000000000000930200bd
:1022d00000000000000000004b0200000058020057
:1022e0000000280000000000580200000028000044
:1022f00000005800020000002800000000b00400a8
:1023000000000000a40900000c0000000200000012
:1023100000a2a400a6a8aa00ac004400000000008f
:10232000960900000e00000000000000b009000047
:1023300002000000000000006e09000028000000fc
:102340000000000000080000020100000000000082
:04235000aa1180004e
:020000040000fa
:042354000000000085
:020000040000fa
:0200000401f009
:04000000ffff0000fe
:020000040000fa
:0200000401f009
:04000800ffff0000f6
:020000040000fa
:0200000401f009
:04000c007eff000073
:020000040000fa
:0200000401f009
:0400100073ff00007a
:020000040000fa
:0200000401f009
:040014007fff00006a
:020000040000fa
:0200000401f009
:04001800f7ff0000ee
:020000040000fa
:0200000401f009
:04001c00fdff0000e4
:020000040000fa
:0200000401f009
:0400200000ff0000dd
:00000001FF
